:100000006F00A03A00000000F2010000F4010000BF
:1000100000000000000000000000000000000000E0
:1000200000000000000000000000000000000000D0
:1000300078030000000000007A03000000000000C8
:100040007C0300007E0300008003000082030000A8
:100050008403000086030000880300008A03000078
:100060008C0300008E030000900300009203000048
:100070009403000096030000980300009A03000018
:100080009C0300009E030000A0030000A2030000E8
:10009000A4030000A6030000A80300000000000065
:1000A000511126C022C206C4828282441244A24058
:1000B000310182802A86014593F6150091C232955E
:1000C00085810606F5F9828000000000634E050276
:1000D00063C305042E86AA857D5515C285466378BF
:1000E000B6006356C00006068606E36CB6FE014500
:1000F00063E4C500918D558D85820582F5FA828075
:100100008682C93F2E8582823305A0406347B000B6
:10011000B305B040C1B7B305B0408682653F330533
:10012000A0408282868263C70500634905005D376F
:100130002E858282B305B040E35B05FE3305A04007
:10014000513F3305B040828200003D432A876373EC
:10015000C3029377F700BDEFADE5937606FF3D8AC6
:10016000BA960CC34CC30CC74CC74107E36BD7FE10
:1001700011E28280B306C3408A0697020000969679
:100180006780A6002307B700A306B7002306B700C1
:10019000A305B7002305B700A304B7002304B700E5
:1001A000A303B7002303B700A302B7002302B700DD
:1001B000A301B7002301B700A300B7002300B700D5
:1001C000828093F5F50F93968500D58D9396050162
:1001D000D58D61B793962700970200009696868288
:1001E000E78086FA9680C1171D8F3E96E374C3F8A8
:1001F000A5B7828001A0EFF2BFEA51118545130532
:10020000000202C002C202C4712E85472310F10011
:1002100037150140C1473EC48A858D471305054007
:100220003EC21124310151B5EFF29FE70945E12C9F
:100230006D217165130505202123B707002083A5D3
:1002400007000965130545A2C1230965130545A3E8
:10025000E125553701441305A00F452911C8014672
:10026000014437150140854513050540412CE5B78C
:1002700005460544FDB7B71702409843B706FFFC93
:1002800061111367170098C3D8432166758FD8C3CF
:100290009843B706F7FEFD16758F98C39843B706C7
:1002A000FCFFFD16758F98C3D843C176FD16758F78
:1002B000D8C337079F0098C702C002C2984FB7063D
:1002C00001401367170098CFD842518FD8C2984386
:1002D000C16637060200558F98C3B71602400967FA
:1002E0009C42F18F3EC2824785073EC0924781E71C
:1002F0008247E397E7FEB71702409C4337070200A7
:10030000F98FBDC785473EC2124785476310F70680
:10031000B72702409843C176FD16719B98C3984356
:100320001367170098C3B7170240D843D8C3D84300
:10033000758FD8C3D843C166558FD8C39843B706C5
:100340000001558F98C3B70600029843758F75DF7B
:10035000D843B7160240719BD8C3D8431367270010
:10036000D8C32147DC42B18BE39EE7FE21018280A6
:1003700002C259BF01A001A001A001A001A001A0DB
:1003800001A001A001A001A001A001A001A001A065
:1003900001A001A001A001A001A001A001A001A055
:1003A00001A001A001A001A001A09701002093815C
:1003B000614E138101F71715000013056578970545
:1003C0000020938525C41386C18063FAC50083226B
:1003D000050023A0550011059105E3EAC5FE13852C
:1003E000C180938501826377B50023200500110544
:1003F000E36DB5FE93020008739002308D42739056
:100400004280970200009382E2BF93E23200739031
:100410005230EFF05FE697020000938222E1739082
:100420001234730020309C45611122C226C013F79C
:10043000070113F3F70001C7D8413363E30003D684
:1004400005001377F60F29C783230500014713041E
:100450008002930480048546B395E600B376B60027
:100460006392D50293122700BD46B396560093C6F9
:10047000F6FFB3F37600B3125300B3E37200639751
:1004800087064CC90507A146E317D7FC2320750052
:100490001307F00F6378C7048323450081461304D4
:1004A0008002930480048545138786003397E50016
:1004B000B375E6006312B70293922600BD45B3956B
:1004C000550093C5F5FFB3F37500B3125300B3E3C2
:1004D00072006391870258C985062147E395E6FCBF
:1004E000232275001244824421018280E39C97F804
:1004F0000CC949BFE39297FE18C9F9BF19C20CC9CC
:1005000082804CC9828023ACA1808280EFF25FB9E7
:10051000371702405C43A1462A84B18B638ED7060D
:10052000B7376E01938707601CC0B7160240DC42E4
:10053000918313F7F700B707002093878701BA97D5
:1005400003C50700DC4218409375F50F93F70708C1
:100550003355A70099E33A85B53E48C008C448C45E
:10056000B7170240DC43AD83FD8B13D737008A07F2
:10057000F18BD98F93F637010D476373D700D117ED
:100580003707002013074700BA9783C5070093F584
:10059000F50F893608C811BE5C43B777DC02938734
:1005A00007C059B799C5371702401C4F5D8D08CF5A
:1005B0008280B7170240984F1345F5FF798D88CF99
:1005C0008280EFF2FFAD83570501F576FD16C20775
:1005D000C183F58F83D6650003D7C5002111D58F60
:1005E0002318F5008357C500FD769386369FC20712
:1005F000C183F58F83D645002A84AE84D58F83D6F8
:100600008500D58F83D6A500D58FC207C183231659
:10061000F50083574501C207C18393F7F7CFD98F00
:10062000231AF5004800DD35B7470140938707805E
:100630006310F406C247139517000357C4003E9594
:100640000E053E95931707018C4063D50704860578
:100650005134930540062AC0B53C824793144500A7
:10066000930540063E85693C8357C40013970701F4
:10067000635407020E059305400613052503993CB4
:100680001D89C98CC204C18023149400610131BC4E
:10069000B24755B78A056DBF12059305400613058D
:1006A00025030D3C3D89F1BF8357C500C207C183B7
:1006B00091C50967D98F2316F500828079777D1758
:1006C000F98FD5BF93F5F51F2312B500828003552E
:1006D00005006D8D3335A0008280EFF27F9CB70757
:1006E000002003A50700B7157A0093850520DD32A9
:1006F0001375F50F238FA18093175500898F8A07F3
:100700003E950E05239EA1804DB2EFF27F9937F4FE
:1007100000E05C40AA85F99B5CC003D5C181593AD1
:1007200008C8232404001C4093E717001CC0B7F737
:1007300000E0D843058B75DF9843799B98C3B5B229
:10074000EFF21F962A8411651111854513050502E4
:10075000913D930700022310F100371501408D47AA
:100760003EC28A85E147130505403EC46D3922C665
:1007700037440140B70708006C00130504803ECAE7
:1007800002C8231C0100353D854513050480293F1F
:10079000710121BAEFF2DF9071112EC032848144D1
:1007A00063DD840237470140930607803685930551
:1007B0000004313FB7470140938607803747014027
:1007C00075D5824713050780B38697008385060099
:1007D0008504C205C181FD35E1B7228511016FF0A5
:1007E000DF8C3707002013078702AA870843938608
:1007F0000182AA9763E8D700938601E763E4F600D5
:100800001CC382807D558280130181FD22C606C8EB
:100810002A842ECA32CC36CE3AD03ED217050020DA
:100820000325458711C51C4D81E72AC0052B0245CC
:100830000C455408228636C2EF009015C24032445F
:10084000130181028280411126C206C622C42EC035
:10085000AA8401C5184D11E31123984C804419E373
:100860002685ED2917170000130747206313E402BC
:10087000C0400357C400218B19C3184829EFA28533
:100880002685AD2229C97D55B240224492444101BA
:100890008280171700001307671F6314E400804469
:1008A000C9BF171700001307671AE314E4FCC0441C
:1008B000C9B7824718C485073EC063580700144C67
:1008C000634DD7022947638AE50218409306170053
:1008D00014C02300B7008247184483C507007D1762
:1008E000E9F918C4635207022286A94526851D2806
:1008F000FD57E30AF5F8294541BF228626851D20CC
:100900007D57E31AE5FC41B71C401387170018C058
:1009100029472380E700C5B7AA8517F5FF1F0325E0
:10092000657715B7311122C626C406C8AA87AE84DA
:10093000328411C5184D01E72AC00D2182471717CF
:1009400000001307A712631BE406C043184C18C429
:100950000357C400218B59C3184849C3184808409D
:1009600093F6F40F93F4F40F198D5848634AE50099
:100970003E85A28536C23EC0D924824792462DE5E7
:10098000184405057D1718C418401306170010C039
:100990002300D70058486309A7000357C400058BFC
:1009A00001CB29476396E400A2853E85492C0DEDD5
:1009B000C24032442685A2445101828017170000AC
:1009C0001307C70C6314E400804749B717170000EA
:1009D0001307C707E31CE4F6C0478DBF3E85A28519
:1009E0003EC0292082473DD9FD54D9B7411122C4C8
:1009F00026C206C697F4FF1F83A4C469AA872E8463
:100A000099C4984C09E72AC02685892E8247171772
:100A100000001307A705631AE402C0400317C400CF
:100A20009316070113768700C18235EE13F606018F
:100A30000DEEA54694C3136707042316E4007D5505
:100A4000B2402244924441018280171700001307EC
:100A5000E7036314E4008044D1B7171700001307BD
:100A6000E7FEE31DE4FAC04455BF918A9DC64C5889
:100A700099C9130744046386E5003E853EC01D2BDB
:100A80008247232A04020357C40023220400137759
:100A9000B7FD2316E400184818C00357C4001367B5
:100AA00087002316E400184801EF0357C40093069B
:100AB0000020137707286305D700A2853E85B1295A
:100AC0008317C4001397070193F61700418395C25B
:100AD000544823240400B306D04014CC14480145E4
:100AE000A5F21377070829DF93E707042316F4001C
:100AF000B9B793762700014691E2504810C4F9BF78
:100B000003D7C500311122C606C826C493768700D4
:100B1000AA872E84FDE2D4416347D000B4416344E8
:100B2000D0000145C9A00323C402E30C03FE85667F
:100B30008443758F23A007002DCF68480357C40056
:100B4000118B19C75840198D585819C33840198D41
:100B500058540C5081462A863E853EC002977D57E8
:100B60008356C4008247631DE50090437547636167
:100B7000C7083707402005073357C700058B2DCB23
:100B800018482322040018C00567F98E99C67D57BE
:100B90006314E500984311E368C84C5884C3D1D16D
:100BA000130744046384E5003E852921232A0402B7
:100BB0008DBF0C503E85854601463EC002937D5751
:100BC0008247E31DE5F6984335DBF5466305D7001C
:100BD000D9466314D70084C3A9B78357C40093E7E9
:100BE00007042316F400C2403244A244510182801B
:100BF00093E606042316D400FDB790491DD2844124
:100C00000D8B90C1918C814611E3D44914C4E35AF1
:100C100090F018540C503E85A68632C23EC0029712
:100C200082471246634AA0008357C4007D5593E76C
:100C300007042316F40045BF2A96898CC9BF9C4936
:100C4000B9CF411122C406C62A8411C51C4D81E7C3
:100C50002EC02922824597170000938727E1639BC6
:100C6000F5004C408397C50095C722852244B240C9
:100C7000410179B597170000938747E16394F50028
:100C80000C44CDB797170000938747DCE39CF5FC35
:100C90004C44C9BFB2402244014541018280014514
:100CA0008280511122C206C42A842316B50023175C
:100CB000C50023200500232205002324050023224C
:100CC000050623280500232A0500232C05002146BC
:100CD00081451305C505EFF04FC7970700009387BF
:100CE00027795CD0970700009387877B1CD49707F0
:100CF00000009387C77F5CD4971700009387878293
:100D0000A24000D01CD81244310182809705000017
:100D1000938525F399A241111386F5FF22C413147C
:100D2000160032940A0432940E042EC09305440730
:100D300026C206C6392EAA8401CD8247232005008B
:100D4000130684065CC1310588C48145EFF0EFBF0E
:100D5000B240224426859244410182801C4DADE37D
:100D6000511122C206C497070000938767FA1CD569
:100D700023240504232605042328050483A7818052
:100D80002A846314F50085471CCD22851D2848C0A0
:100D90002285052808C422852D2048C448400146E4
:100DA0009145013708440546A545E53D48440946B7
:100DB000C945C53D8547A2401CCC12443101828003
:100DC0008280411122C403A481801C4C26C206C625
:100DD000AA8499E322855937930784048047D8432E
:100DE0007D1763560700984331CF9C43C5BF8316D8
:100DF000C400B1E6C177850723220406232004003E
:100E000023220400232404005CC423280400232A92
:100E10000400232C0400214681451305C405EFF08E
:100E2000CFB2232A0402232C040223240404232601
:100E30000404B2402285224492444101828013047A
:100E4000840679BF914526853EC0F13582472A84C4
:100E500088C341FDB1479CC0E9BF111122CA06CC2D
:100E600026C8AA87AE86130485040147044450406F
:100E70007D16635A0600004075F8E2405244C244B1
:100E80003A857101828003D5C400854563F3A502CC
:100E90000395E400FD55630EB5003E85A6853AC670
:100EA00032C43EC236C082963247224692478246BC
:100EB000498F938484066DBFAE878395E500597191
:100EC000A2D4A6D286D63284B68463DC050083978A
:100ED000C70023A0040093F707089DE7930700408D
:100EE00035A01306F100619A3EC232C07125024658
:100EF0009247E34E05FC5842BD67F98F7977BA9760
:100F000093B717009CC0D9BF93070004B6501CC00C
:100F10002654965401456561828003D7C50021118E
:100F200022C806CA26C6098B2E8401CF93077404F3
:100F30001CC01CC885475CC8D2404244B244610111
:100F4000828034005000AA84853F92452AC02685BD
:100F5000092201ED8317C40013F7072071FFF19BED
:100F600093E727002316F400D1B7170700001307F3
:100F700027DA98D40357C40008C008C813670708C5
:100F80002316E400124758C8224709CF8315E4000E
:100F90002685392501C98357C400F19B93E71700C3
:100FA0002316F4000355C4008247B3E4A7002316B8
:100FB000940059B7D1CD83A7C5FF411122C406C6FD
:100FC0001384C5FF63D307003E942AC03D2D1387C9
:100FD000C1801C43024581EB2322040000C322444C
:100FE000B240410125A5637DF4001040B306C40062
:100FF0006396D7009443DC43B29614C05CC0F9BF3B
:101000003E87DC4399C3E37DF4FE14433306D700E7
:10101000631F86001040B29614C33306D700E390D6
:10102000C7FC9043DC43B29614C35CC34DBF6375E9
:10103000C400B1471CC165B71040B306C400639635
:10104000D7009443DC43B29614C05CC040C341BF98
:101050008280411126C293843500F19806C622C4CD
:10106000A1043147AA8763F5E404B14463E4B404FE
:101070003E853EC0592B1386C18014428247368478
:1010800031E013840181184019E73E8581453EC057
:10109000552E824708C03E85A6853EC065267D57F1
:1010A00082476314E506314798C33E85852329A00E
:1010B000E3DE04FA314798C30145B240224492442A
:1010C000410182801840058F634E0702AD4563F6EB
:1010D000E50018C03A9404C029A0584063928602E3
:1010E00018C23E8525231305B40093074400619977
:1010F0003307F540E303F5FC3A94898F1CC075BFB4
:10110000D8C2C5B7A2864040A5BF13043500719868
:10111000E30385FCB305A4403E853EC025267D57EC
:101120008247E31AE5FA41B71C46FD171CC663DA8D
:101130000700184E63C5E700A9476394F5006FF0F8
:101140006FFE1C422E851387170018C22380B7003C
:101150008280311122C626C406C8AA872E8732840F
:10116000B304D60063149400014531A883450400FC
:101170003A863E853AC23EC0453FFD5682471247F9
:101180000504E311D5FEC2403244A24451018280DD
:10119000130181F722C1A6DE9307F10106C32AC01D
:1011A00032C236C62E8493F487FF01C5184D11E371
:1011B0007536171700001307678B6316E40E824716
:1011C000C0430357C400218B630107101848630E06
:1011D000070EB24713070002A38CE40013070003B5
:1011E00023AA0400238DE4003ECA124713065002CE
:1011F0008346070099C26397C60E9247B306F7402D
:101200006300F70202453E86A2853AC836C691378A
:101210007D566307C520D048B24642473696D0C8AF
:1012200083460700638E061E930617007D5723A092
:10123000040023A60400D8C023A40400A38104044E
:1012400023AC040483C506001546171500001305DA
:10125000E58536C2712E924690401387160049E507
:101260009375060189C593050002A381B4049375A3
:10127000860089C59305B002A381B40403C50600A6
:101280009305A002630EB506D044368781452545F7
:101290008346070013031700938606FD6377D50A7C
:1012A000A5C9D0C4B5A0170700001307277E631592
:1012B000E4008247804731B717070000130707791A
:1012C000E311E4F08247C047EDBD0245A285EFF08F
:1012D000EFF1E30005F07D559A400A44F6541301FE
:1012E00081088280050729B7970600009386067C4F
:1012F000158D85463395A600498E90C0BA8699B75C
:10130000D2469385460094422ECA63C90602D4C4CD
:10131000034607009306E0026313D6060346170050
:101320009306A002631ED602D24609071386460022
:10133000944232CA63C40602D4C091A0B306D0401E
:1013400013662600D4C490C0E1B713172600329765
:1013500006073306D70085451A871DBFFD56E9BF2E
:10136000050723A204008145814625450346070061
:1013700013031700130606FD6378C506D5FD8345E4
:1013800007000D46170500001305C5723AC28D24EB
:10139000124711CD970600009386C671158D9306EE
:1013A0000004B396A60088400507558D88C0834584
:1013B0000700930717001946170500001305C56FAE
:1013C0003EC2238CB4002D2425C51307000005EB75
:1013D0009440524793F606108DC211073ACAD84876
:1013E000A2473E97D8C811B513972600369706072F
:1013F000B306C70085451A8795BF2107C5B70245C3
:10140000580897060000938606D52286A685970081
:101410000000E70000002AC4A2477D57E391E7FCE3
:101420000357C40013770704E31707EAC8486DB5EC
:1014300002455808970600009386E6D12286A685C5
:10144000FD24D1BF511122C22A842E8523AA0180F6
:1014500006C4EFF00FB9FD576316F50083A741816D
:1014600091C31CC0A240124431018280511122C29A
:101470002E848395E50006C49123634905007C48CA
:10148000AA977CC8A2401244310182808357C400CD
:101490007D777D17F98F2316F400EDB7368783D655
:1014A000C500311122C626C406C893F60610AA84C8
:1014B0002E84B28791CA8395E50032C089460146E1
:1014C0003AC21122124782478356C4007D767D16A8
:1014D000F18E2316D4008315E4003244C2402685E1
:1014E000A244BA863E8651013DA8511122C22E84E3
:1014F0008395E50006C4C128FD570357C400631B4C
:10150000F500FD77FD17F98F2316F400A240124471
:10151000310182808567D98F2316F40068C8FDB732
:101520008395E5003DA0511122C22A842E85B28503
:10153000368623AA018006C4EFF0CFA5FD576316B7
:10154000F50083A7418191C31CC0A2401244310120
:101550008280511122C22A842E8523AA018006C4CA
:101560005921FD576316F50083A7418191C31CC023
:10157000A240124431018280511122C22A842E8558
:10158000B28523AA018006C4AD21FD576316F5007C
:1015900083A7418191C31CC0A240124431018280C3
:1015A000511122C22A842E8523AA018006C48129D2
:1015B000FD576316F50083A7418191C31CC0A2406B
:1015C000124431018280511122C22A842E85B285B3
:1015D000368623AA018006C40D29FD576316F5003F
:1015E00083A7418191C31CC0A24012443101828073
:1015F00093F5F50F2A966314C50001458280834751
:101600000500E38DB7FE0505FDB7828082800111DC
:10161000AE8726CAB685BA849447984B22CC06CEAC
:101620002A8432836353D70036872320E30083C69E
:10163000370481C605072320E30098431377070288
:1016400011C70327030009072320E30098431386EB
:101650009701198B35C3984383C637041377070264
:10166000B336D00051E71386370422851AC43EC230
:101670002EC082947D576307E50692472243824538
:101680009443032603001143998AC847014763978F
:1016900066003307C5406353070001479447904BEA
:1016A0006354D600918E369701431386A7016310C9
:1016B000670601450DA80507D44703250300898E59
:1016C000E35BD7F8854622851AC83EC63AC432C2C3
:1016D0002EC08294FD56824512462247B2474243AD
:1016E000E31BD5FC7D55F2406244D2440561828003
:1016F0003386D70013050003A301A60403C65704CD
:10170000138716003E978906A301C704A9BF854623
:1017100022851AC63AC432C22EC08294FD57E30312
:10172000F5FC3243224712468245050349B71301AF
:1017300041FD22D206D426D032C203C6850136C46A
:101740002AC0930680072E8463EEC6009306200607
:101750009382350463EDC6006304061E930680057C
:101760006305D614930424042301C40415A8930626
:10177000D6F993F6F60FD545E3E6D5FE97050000BA
:10178000938585368A06AE969442AE968286144339
:10179000930424041386460010C398422301E404F2
:1017A0000547C1A21440084313F6060893054500F7
:1017B0000DC214410CC363D806001307D002B30650
:1017C000D040A301E404170600001306662FA945C4
:1017D000A9A013F6060414410CC371DEC206C1862B
:1017E000D9BF0C40144313F3050813854600630565
:1017F000030008C3944239A093F5050408C3FDD93A
:1018000083D606001307F0066302E61017060000F1
:101810001306062BA945A3010404584018C46345C8
:10182000070008406D9908C099E2968405CF968418
:10183000368516CC32CA2EC836C6EFE07F8C5246AB
:10184000B246C2453295034705003685FD14238014
:10185000E400EFE03F883247C2455246E242AA86A2
:10186000E378B7FC2147639EE5001840058B11CB58
:10187000544018486347D70013070003A38FE4FEC2
:10188000FD14B38292402328540022479246024519
:101890007008A285AD3B7D576319E50C7D55A250BC
:1018A000125482541301C1028280A382C504170618
:1018B00000001306E6200C40084313F3050814410A
:1018C0001105630D030208C313F7150001C793E563
:1018D00005020CC0C145A1F218401377F7FD18C0EE
:1018E0001DBF144093E6060214C093068007A302AE
:1018F000D404170600001306E61D75BF13F3050494
:1019000008C3E30303FCC206C1827DBF17060000C3
:101910001306061BA14501B7104014434C4813732E
:101920000608138546006306030008C398420CC3EB
:1019300001A808C313760604984275DA2310B7008D
:1019400023280400968491B71443814513864600EA
:1019500010C3844250402685613919C1058D48C0A5
:10196000584018C8A30104040DB714489245024515
:10197000A247268682977D57E302E5F21840098B3D
:1019800015EB72474844E35CE5F03A8509BF9245A0
:101990000245A24785463AC832C68297FD56E30FF4
:1019A000D5EE4247324605075444F2458D8EE3405A
:1019B000D7FEC1BF014713069401FDB7511122C2E2
:1019C0002A842E85B285368623AA018006C4A120EA
:1019D000FD576316F50083A7418191C31CC0A24047
:1019E0001244310182809307800523AAF1807D553E
:1019F00082809307800523AAF1807D55828093071A
:101A0000800523AAF180014582809307800523AADF
:101A1000F1807D5582809307800523AAF1807D5552
:101A20008280000053797374656D436C6B3A256452
:101A30000D0A00004750494F20546F67676C6520BE
:101A4000544553540D000000000000000000000049
:101A50000000000000000000000000000000000086
:101A60000000000000000000000000000000000076
:101A70000000000000000000000000000000000066
:101A80000000000000000000000000000000000056
:101A90000000000000000000000000000000000046
:101AA0000000000000000000232D302B200000006B
:101AB000686C4C006566674546470000303132333C
:101AC000343536373839414243444546000000003A
:101AD00030313233343536373839616263646566A4
:101AE00000000000AAFCFFFFC0FCFFFF80FCFFFF1E
:101AF00080FCFFFF80FCFFFF80FCFFFFC0FCFFFFBE
:101B000080FCFFFF80FCFFFF80FCFFFF80FCFFFFED
:101B100034FEFFFFFEFCFFFFFEFDFFFF80FCFFFF2A
:101B200080FCFFFF64FEFFFF80FCFFFFFEFCFFFF69
:0C1B300080FCFFFF80FCFFFF06FEFFFFB3
:101B3C00006CDC020204060804080C1008101820C3
:101B4C001020304020406080010203040506070885
:101B5C000102030405060708B00000200000000085
:101B6C00681A0000881A0000481A000000000000E3
:101B7C000000000000000000000000000000000059
:101B8C000000000000000000000000000000000049
:101B9C000000000000000000000000000000000039
:101BAC000000000000000000000000000000000029
:101BBC000000000000000000000000000000000019
:0C1BCC002C000020000000002C00002075
:00000001FF
